:020000040800F2
:10000000B80D002001010008452600084726000819
:100010004B2600084F260008532600080000000069
:10002000000000000000000000000000572600084B
:1000300059260008000000005B2600085D26000825
:100040001B0100081B0100081B0100081B01000820
:100050001B0100081B0100081B0100081B01000810
:100060001B0100081B0100081B0100081B01000800
:100070001B0100081B0100081B0100081B010008F0
:100080001B0100081B0100081B0100081B010008E0
:100090001B0100081B0100081B010008F5360008C1
:1000A0001B0100081B0100081B0100081B010008C0
:1000B000893A00081B0100081B0100081B01000809
:1000C0001B0100081B0100081B0100081B010008A0
:1000D0001B0100080D3E00081B0100081B01000861
:1000E0001B0100081B0100081B010008DFF80CD0F1
:1000F00007F070F90048004731250008B80D0020CE
:100100000648804706480047FEE7FEE7FEE7FEE7B1
:10011000FEE7FEE7FEE7FEE7FEE7FEE70302000874
:10012000ED0000080CB50020019000906C480068BC
:1001300040F480306A49086000BF6948006800F4F4
:10014000003000900198401C0190009818B9019867
:10015000B0F5A06FF1D16248006800F4003010B132
:100160000120009001E0002000900098012843D178
:100170005C48006840F010005A4908600846006872
:1001800020F0030008600846006840F002000860A4
:1001900053484068524948600846406848600846ED
:1001A000406840F4806048600846406820F47C1055
:1001B00048600846406840F4E81048600846006817
:1001C00040F08070086000BF4548006800F0007093
:1001D0000028F9D04248406820F0030040494860B8
:1001E0000846406840F00200486000BF3C48406854
:1001F00000F00C000828F9D10CBD10B5FFF792FFF4
:1002000010BD10B53648006840F001003449086060
:10021000084640683449084031494860084600684B
:10022000324908402E4908600846006820F48020C2
:1002300008600846406820F4FE0048604FF41F0044
:100240008860FFF7DAFF4FF000602949086010BDB1
:1002500010B5002100200022214B5B6803F00C0147
:1002600021B1042906D0082928D107E0214B224CCE
:10027000236027E01F4B204C236023E0184B5B6872
:1002800003F47010164B5B6803F48032022303EB17
:10029000904022B9194B4343174C23600DE0104B9B
:1002A0005B6803F4003323B1144B4343124C2360C7
:1002B00003E0104B4343104C236003E00D4B0E4C06
:1002C000236000BF00BF064B5B68C3F303130C4CF5
:1002D000E15C094B1B68CB40074C236010BD00005C
:1002E00000100240002002400000FFF8FFFFF6FE71
:1002F00008ED00E000127A000000002000093D0037
:100300000400002031490143314A1160704770B543
:10031000002100230F22C47804B32D4C246804F478
:10032000E064C4F5E064210AC1F10403CA404478E2
:1003300004FA03F18478144021430901254C06781E
:10034000A155047804F01F050124AC4005786D1117
:10035000AD0005F1E025C5F8004109E0047804F09E
:100360001F050124AC401C4D0678761145F8264047
:1003700070BD1A4A0A400243154B1B1F1A60704792
:1003800039B1134A121D12680243114B1B1D1A602A
:1003900006E00F4A121D126882430D4B1B1D1A60A6
:1003A0007047042808D14FF0E021096941F00401A9
:1003B0004FF0E022116107E04FF0E021096921F0E0
:1003C00004014FF0E0221161704700000000FA05BF
:1003D0000CED00E000E400E080E100E080FFFF1FA2
:1003E000002044490860091D0860091D0860091DB6
:1003F000086041483F4914310860704700213D4979
:100400008279002A3AD00A46126803689A430B465A
:100410001A600A1D126803689A430B1D1A6002795C
:1004200011440A6803681A430A60324A08321268A3
:1004300003689A432F4B08331A601A1D1268036829
:100440009A432C4B0C331A604279102A0ED11A1F92
:10045000126803681A43274B08331A601A1D126882
:1004600003681A43234B0C331A600DE0214942798B
:1004700011440A6803681A430A6005E002791144CE
:100480000A6803689A430A6070470021016001719D
:100490000C214171002181717047164910310968A2
:1004A0000143144A10321160704701460020114A7E
:1004B000143212680A400AB1012000E0002070479F
:1004C0000C49143108607047014600200022094B96
:1004D0001B6803EA0102074B14331B680B4013B17E
:1004E0000AB1012000E00020704702491431086081
:1004F0007047000000040140FFFF0F0010B50446E4
:10050000CC48844208D10121042000F02FFD0021B5
:10051000042000F02BFD46E0C748844208D10121A9
:10052000082000F023FD0021082000F01FFD3AE024
:10053000C248844208D10121102000F017FD00219B
:10054000102000F013FD2EE0BD48844208D10121A7
:10055000202000F00BFD0021202000F007FD22E00C
:10056000B848844208D10121402000F0FFFC00215E
:10057000402000F0FBFC16E0B348844208D1012182
:10058000802000F0F3FC0021802000F0EFFC0AE066
:10059000AE48844207D10121801500F0E7FC00211C
:1005A000A01500F0E3FC10BD10B50121084600F0D5
:1005B000DDFC0021012000F0D9FC10BD2DE9F04147
:1005C000024600250026002000230024002791F881
:1005D00003C00CF00F0591F803C00CF0100CBCF137
:1005E000000F03D091F802C04CEA050591F800C055
:1005F000BCF1000F31D0146800202BE04FF0010C4B
:100600000CFA00F3B1F800C00CEA03069E4220D1B8
:1006100083004FF00F0C0CFA03F7BC4305FA03FC00
:100620004CEA040491F803C0BCF1280F06D14FF046
:10063000010C0CFA00FCC2F814C00AE091F803C0E7
:10064000BCF1480F05D14FF0010C0CFA00FCC2F8C8
:1006500010C0401C0828D1D31460B1F800C0BCF110
:10066000FF0F34DD546800202EE000F1080C4FF03D
:10067000010808FA0CF3B1F800C00CEA03069E4228
:1006800021D183004FF00F0C0CFA03F7BC4305FA9D
:1006900003FC4CEA040491F803C0BCF1280F05D117
:1006A00000F1080C08FA0CF8C2F8148091F803C0A5
:1006B000BCF1480F07D100F1080C4FF0010808FA0F
:1006C0000CF8C2F81080401C0828CED35460BDE856
:1006D000F0814FF6FF710180022181700421C17009
:1006E00070470246002093680B400BB1012000E0E8
:1006F000002070470146886880B27047024600209B
:10070000D3680B400BB1012000E000207047014688
:10071000C86880B2704701617047416170470AB193
:10072000016100E041617047C16070474FF4803261
:100730000A438261816182618269826970470246EF
:100740000020434B18684FF68073184040EA0210AF
:1007500008433F4B186070473E49C8617047F0B589
:100760000A46002300240021002500F00046B6F1CF
:10077000004F02D1364EF16901E0354E7168C0F389
:10078000034583B200F44016B6F5401F08D121F0AE
:1007900070612F4E766826F070662D4F7E6012E0F5
:1007A00000F48016B6F5801F06D1032606FA05F47C
:1007B000A14341F0706106E0460D360103FA06F6EA
:1007C000B14341F0706122B1460D360103FA06F6DD
:1007D000314300F00046B6F1004F02D11C4EF161EA
:1007E00001E01B4E7160F0BD30B500228B071C0F7D
:1007F0000F2303FA04F2164B08338C1053F82430FD
:100800009343134C08348D1044F8253023468C1044
:1008100053F824308C07240F00FA04F423430C4CC3
:1008200008348D1044F8253030BD0A49DC310860A9
:100830007047000000080140000C0140001001401A
:100840000014014000180140001C0140002001403C
:10085000000001400000204210B50446F7488442E1
:1008600009D10121480500F08EFB00214FF4001052
:1008700000F089FB08E00121880500F084FB0021DD
:100880004FF4800000F07FFB10BD2DE9F04385B0F0
:1008900004460D460026B1460427DFF8A483A68847
:1008A0004FF6C0700640684600F0D9FADDF80880BF
:1008B000E448B8FBF0F01FFA80F946EA0906A68082
:1008C00020884FF6FE71084020800026DE49286807
:1008D00088420CD828684000B8FBF0F087B2042F9B
:1008E00000DA04273E4309F10100208427E0E8886C
:1008F0004BF6FF71884206D1286800EB4000B8FB38
:10090000F0F087B209E0286800EBC00101EB0010AD
:10091000B8FBF0F087B247F48047C7F30B0008B983
:1009200047F0010747F4004006434FF4967009FB77
:1009300000F04FF47A7190FBF1F0401C2084A68304
:10094000208840F00100208026884FF6F5300640D0
:10095000A8886989084306432680A889298908430D
:10096000208105B0BDE8F08341F2883101600021AB
:1009700081804BF6FF71C1800021018141814FF4DC
:1009800080418181704721B1028842F001020280DA
:1009900004E002884FF6FE731A400280704721B1CE
:1009A000828842F40062828004E082884FF2FF7302
:1009B0001A408280704721B1828842F4805282803E
:1009C00004E082884EF6FF731A408280704721B19E
:1009D000028842F48072028004E002884FF6FF63CE
:1009E0001A400280704721B1028842F400720280EE
:1009F00004E002884FF6FF531A400280704721B18D
:100A0000028842F48062028004E002884FF6FF33DD
:100A10001A40028070470A46002181894FF601730F
:100A2000194002F0FE0319438181704721B1828988
:100A300042F00102828104E082894FF6FE731A407F
:100A40008281704721B1028842F04002028004E0B6
:100A500002884FF6BF731A40028070471AB183882C
:100A60000B43838002E083888B438380704701823D
:100A700070470146088AC0B2704712B141F00101C7
:100A800002E04FF6FE7319400182704708B5024636
:100A90000020009000920098084400900098008880
:100AA00008BD21B1028842F40042028003E00288BE
:100AB000C2F30E0202807047B1F5006F04D10288C4
:100AC00042F40062028004E002884FF2FF731A4091
:100AD00002807047B1F5005F04D1028842F40052F1
:100AE000028004E002884DF6FF731A4002807047CE
:100AF00021B1028842F48052028004E002884EF65E
:100B0000FF731A4002807047B1F5006F04D102886C
:100B100042F40062028004E002884FF2FF731A4040
:100B20000280704721B1028842F02002028004E076
:100B300002884FF6DF731A40028070470146088B27
:100B40000012704721B1028842F01002028004E0D6
:100B500002884FF6EF731A400280704721B902886D
:100B600042F08002028004E002884FF67F731A4050
:100B700002807047B1F5804F05D0828B4BF6FF7332
:100B80001A40828303E0828B42F480428283704762
:100B900070B502460024002500230020958A138B9F
:100BA0001B0445EA030626F07F4404EA01068E4250
:100BB00001D1012000E0002070BD10B501460020E9
:100BC000002300228B8A0A8B120443EA020424F0D9
:100BD0007F4010BD0CB50246002000230193009316
:100BE00000920B0F019321F07F41019B1BB1009BF1
:100BF0001433009303E0090C009B18330093009B0F
:100C00001B680B400BB1012000E000200CBD00224E
:100C100021F07F42D3438382704730B502460020E3
:100C20000023948801F0E06504EA154321F07F4138
:100C3000948A0C4054B14BB1012008E000540040AC
:100C400000127A0040420F00A0860100002030BD53
:100C5000002221F07F42D34383827047DF4800683F
:100C600040F00100DD49086008464068DC49084062
:100C7000DA49486008460068DA490840D749086000
:100C80000846006820F4802008600846406820F488
:100C9000FE0048604FF41F0088607047CF49096824
:100CA00021F48031CD4A11601146096821F4802178
:100CB0001160B0F5803F03D0B0F5802F0ED106E073
:100CC000C649096841F48031C44A116007E0C3494C
:100CD000096841F4A021C14A116000E000BF00BFD3
:100CE000704710B501460022002300204A11012A56
:100CF00002D1BA4C236806E0022A02D1B74C236A1B
:100D000001E0B64C636A01F01F02012494401C40CC
:100D10000CB1012000E0002010BD38B5002000908B
:100D20000024002500BF3120FFF7DBFF05460098B7
:100D3000401C00900098B0F5A06F01D0002DF2D0BB
:100D40003120FFF7CEFF08B1012400E00024204647
:100D500038BD01460020A14A106820F0F80040EAA2
:100D6000C10010607047A04908607047024600202B
:100D70009A4B586820F47C1042EA01031843974BC1
:100D80005860704798490866704701460020934AAA
:100D9000506820F003000843506070478F48406857
:100DA00000F00C007047014600208C4A506820F08B
:100DB000F00008435060704701460020874A5068A1
:100DC00020F4E06008435060704701460020834AE9
:100DD000506820F4605040EAC1005060704729B16B
:100DE0007E4A527A02437D4B5A7204E07B4A527A21
:100DF00082437A4B5A7270477B49D83108607047FA
:100E000001460020754A506820F440400843506075
:100E100070470021714A20321170704A82F8201008
:100E2000012802D004280AD104E001216B4A2032B3
:100E3000117005E00521694A2032117000E000BF01
:100E400000BF70476949086070476449096A0143F7
:100E5000624A11627047654944390860704730B58D
:100E600000210022002400235C4D6D6805F00C0178
:100E700021B1042905D0082923D105E05C4D056086
:100E800022E05B4D05601FE0544D6D6805F4701263
:100E9000524D6D6805F48034022505EB92421CB971
:100EA000544D554305600BE04C4D6D6805F400351D
:100EB0001DB1504D5543056002E04D4D5543056051
:100EC00002E04B4D056000BF00BF444D6D6805F06A
:100ED000F0010909484D6B5C0568DD4045603F4DF8
:100EE0006D6805F4E061090A434D6B5C4568DD40BF
:100EF00085603A4D6D6805F46051C90A3E4D6B5CE2
:100F00004568DD40C560354D6D6805F44041890B8D
:100F10003A4D6B5CC568B5FBF3F5056130BD29B191
:100F20002E4A526902432D4B5A6104E02B4A526902
:100F300082432A4B5A61704729B1284A9269024379
:100F4000264B9A6104E0254A92698243234B9A61B9
:100F5000704729B1214AD2690243204BDA6104E08B
:100F60001E4AD26982431D4BDA61704729B11B4A80
:100F7000D2680243194BDA6004E0184AD26882430F
:100F8000164BDA60704729B1144A12690243134BB9
:100F90001A6104E0114A12698243104B1A617047CA
:100FA00012494039086070470F49C86470470B49BF
:100FB000C87170470948406A40F08070074948622C
:100FC000704701460020054A92680A400AB1012094
:100FD00000E000207047014988727047001002400D
:100FE0000000FFF8FFFFF6FE00004242800442428C
:100FF00000127A0000093D001400002024000020A7
:1010000010B50446BE48844208D101218014FFF780
:10101000ADFF0021A014FFF7A9FF16E0B9488442F4
:1010200008D101210014FFF7AEFF00212014FFF7C3
:10103000AAFF0AE0B448844207D10121C013FFF798
:10104000A2FF0021E013FFF79EFF10BD10B50022A4
:10105000028802F441520B884C8823438C88234336
:10106000CC8823430C8923434C8923438C89234315
:10107000CC8923431A430280838B4FF2FF742340B1
:1010800083830B8A038210BD2DE9F04F85B005469E
:101090000C464FF0000902274FF000084FF0010BFB
:1010A0000026B246A88B4FF240010840A8830220D8
:1010B0002884B5F81C90A068022801D100BF38E050
:1010C000A08810B94FF0010B01E04FF0020B8D48E2
:1010D000854200D100E000BF6846FFF7C0FEDDF8A2
:1010E00000A0E088B0F5007F0AD14FEA1A2000EB9B
:1010F00080004000A168B0FBF1F0401D86B20BE01B
:101100004FEA4B10BAFBF0F000EB80004000A16802
:10111000B0FBF1F0401D86B20A20B6FBF0F606F0F7
:101120000108A6EB0800C0F34F074FF6FF7000EA76
:101130000828022F01DBFF2F02DD02274FF00008F5
:10114000E08840EA080038432884A088A189084341
:10115000618808432188084340F4006040EA090997
:10116000A5F81C9005B0BDE8F08F002101804180FA
:101170008180C180018141818181C18107210182FA
:1011800070470021018041808180C18002218160FF
:1011900000218181704721B1028842F04002028023
:1011A00004E002884FF6BF731A400280704721B1F5
:1011B000828B42F48062828304E0828B4FF6FF339D
:1011C0001A408283704730B5002400230C1101259A
:1011D000A540ABB21AB185881D43858002E08588A1
:1011E0009D43858030BD1AB183880B43838002E024
:1011F00083888B438380704781817047014688894B
:1012000070474FF6FF62914204D0028842F4807228
:10121000028004E002884FF6FF631A4002807047A4
:1012200021B1828842F00402828004E082884FF675
:10123000FB731A408280704702884FF2FF731A4096
:10124000028002880A4302807047018841F480517D
:101250000180704721B1028842F40052028004E00C
:1012600002884DF6FF731A40028070470246002044
:10127000012901D0108B00E0908A70470146088A4E
:101280007047B1F5804F04D1028842F48042028059
:1012900004E002884BF6FF731A4002807047024652
:1012A000002013890B400BB1012000E000207047A3
:1012B000CA4302817047F0B5024600200024002393
:1012C000002501F00F070126BE40B4B20B11012624
:1012D0009E40B3B2968806EA03051689264016B1E9
:1012E0000DB1012000E00020F0BD10B5002201F09A
:1012F0000F040123A3409AB2D343038110BD000021
:101300000030014000380040003C004010B5044669
:10131000FE48844208D10121C014FFF727FE0021B6
:10132000E014FFF723FEC4E0B4F1804F08D101219F
:101330000846FFF728FE00210120FFF724FEB8E051
:10134000F348844208D101210220FFF71CFE00214E
:101350000220FFF718FEACE0EE48844208D10121DC
:101360000420FFF710FE00210420FFF70CFEA0E090
:10137000E948844208D101210820FFF704FE00213A
:101380000820FFF700FE94E0E448844208D10121E0
:101390001020FFF7F8FD00211020FFF7F4FD88E092
:1013A000DF48844208D101212020FFF7ECFD002115
:1013B0002020FFF7E8FD7CE0DA48844208D10121D3
:1013C0004014FFF7D3FD00216014FFF7CFFD70E05C
:1013D000D548844209D10121C804FFF7C7FD002187
:1013E0004FF40020FFF7C2FD63E0D048844209D1EA
:1013F00001210805FFF7BAFD00214FF48010FFF727
:10140000B5FD56E0CA48844209D101214805FFF7DD
:10141000ADFD00214FF40010FFF7A8FD49E0C548DD
:10142000844208D101214020FFF7ADFD002140207A
:10143000FFF7A9FD3DE0C048844208D1012180208A
:10144000FFF7A1FD00218020FFF79DFD31E0BB48A3
:10145000844208D101218015FFF795FD0021A015D8
:10146000FFF791FD25E0B648844209D10121080427
:10147000FFF77CFD00214FF48030FFF777FD18E087
:10148000B048844209D101214804FFF76FFD0021D3
:101490004FF40030FFF76AFD0BE0AB48844208D1FF
:1014A00001218804FFF762FD00214FF48020FFF73F
:1014B0005DFD10BD00220288944B98420ED0994BDE
:1014C00098420BD0B0F1804F08D0914B984205D094
:1014D000904B984202D0904B984204D14FF68F73B4
:1014E0001A404B881A438D4B984207D08C4B984238
:1014F00004D04FF6FF431A40CB881A4302808B88F2
:1015000083850B880385814B98420BD0854B98428D
:1015100008D08B4B984205D08A4B984202D08A4B18
:10152000984201D10B7A038601238382704770B5FC
:10153000002400220023058C4FF6FE7635400584FA
:10154000028C8388048B4FF68F752C40B51E2C407F
:101550000D882C43751E2A400D892A434D882A4345
:101560006A4DA8420BD06F4DA84208D0744DA842D6
:1015700005D0744DA84202D0734DA84213D14FF646
:10158000F7752A404D892A434FF6FB752A408D880E
:101590002A434FF6FF652B404FF6FF552B408D89B0
:1015A0002B43CD892B4383800483CD888586028499
:1015B00070BD70B5002400220023058C4FF6EF7635
:1015C00035400584028C8388048B48F6FF752C40D7
:1015D0004FF6FF452C400D884FF6FF7606EA0525AD
:1015E0002C434FF6DF752A400D8906EA05152A437C
:1015F0004D8806EA05152A43444DA84202D0494DBC
:10160000A8421DD14FF67F752A404D894FF6FF76CF
:1016100006EA05152A434FF6BF752A408D8806EA6B
:1016200005152A434FF6FF352B404FF2FF752B402F
:101630008D8906EA85052B43CD8906EA85052B436E
:1016400083800483CD880587028470BD70B5002433
:1016500000220023058C4FF6FF6635400584028C7E
:101660008388848B4FF68F752C404FF6FC752C4089
:101670000D882C434FF6FF552A400D894FF6FF7613
:1016800006EA05252A434D8806EA05252A431F4D0B
:10169000A84202D0234DA8421DD14FF2FF752A4027
:1016A0004D894FF6FF7606EA05252A434FF6FF35AA
:1016B0002A408D8806EA05252A434EF6FF752B4001
:1016C0004DF6FF752B408D8906EA05152B43CD8914
:1016D00006EA05152B4383808483CD8885870284A1
:1016E00070BD70B5002200230024058C4EF6FF76F5
:1016F00035400584038C8488828B48F6FF752A4028
:101700004FF6FF452A400D8820E00000002C0140E4
:101710000004004000080040000C004000100040A1
:101720000014004000340140004C014000500140D2
:101730000054014000180040001C00400020004000
:101740000040014000440140004801404FF6FF7650
:1017500006EA05252A434DF6FF752B400D8906EA5A
:1017600005352B434D8806EA05352B43FA4DA84233
:1017700002D0FA4DA84208D14BF6FF752C408D8956
:101780004FF6FF7606EA85152C4384808283CD8848
:10179000A0F84050038470BD828B4FF2FF331A4093
:1017A0008283828B4FF6FF7303EA01231A438283FD
:1017B0007047F0B50C461546002200210026078C24
:1017C0004EF6FF7C07EA0C070784828B018C4FF6EC
:1017D000FF7707EA043640F6FF473A404FF6FF77B7
:1017E00007EA05273A434FF6FF7707EA03373A43FC
:1017F000D94FB8420ED0D94FB8420BD0B0F1804F7C
:1018000008D0D74FB84205D0D64FB84202D0D64FF5
:10181000B84206D14DF6FF77394046F48057394338
:1018200005E047F6FF57394044F480573943828337
:101830000184F0BD828B4FF6F3731A408283828B52
:101840000A4382837047F0B50C46154600220021FA
:101850000026078C4FF6FF6C07EA0C070784828B83
:10186000018C4FF6FF7707EA04264FF60C773A40D3
:101870004FF6FF7707EA03172F433A43B64FB842B4
:101880000ED0B64FB8420BD0B0F1804F08D0B44F55
:10189000B84205D0B34FB84202D0B34FB84206D1D8
:1018A0004FF6FF57394046F48077394305E04FF251
:1018B000FF57394044F48077394382830184F0BD77
:1018C000028B4FF2FF331A400283028B4FF6FF73F5
:1018D00003EA01231A4302837047F0B50C4615460C
:1018E000002200210026078C4FF6EF7C07EA0C0748
:1018F0000784028B018C4FF6FF7707EA041640F647
:10190000FF473A404FF6FF7707EA03373A434FF66F
:10191000FF7707EA05273A438F4FB8420ED08F4F23
:10192000B8420BD0B0F1804F08D08D4FB84205D0EF
:101930008C4FB84202D08C4FB84206D14FF6DF77B9
:10194000394046F01007394305E04FF65F773940DC
:1019500044F01007394302830184F0BD028B4FF637
:10196000F3731A400283028B0A4302837047F0B577
:101970000C46154600220021068C4FF6FE773E40AD
:101980000684028B018C4FF60C7632407E1C06EAF0
:1019900003162E433243704EB0420ED06F4EB0420B
:1019A0000BD0B0F1804F08D06D4EB04205D06D4ED7
:1019B000B04202D06C4EB04206D14FF6FD763140B7
:1019C00044F00106314305E04FF6F576314044F02E
:1019D0000106314302830184F0BD70B505460C4613
:1019E0005D4885420ED05D4885420BD0B5F1804FF1
:1019F00008D05B48854205D05A48854202D05A48F3
:101A0000854200D100E000BF208850B92389A28818
:101A100061882846FFF7ABFFE1882846FFF79EFF65
:101A200025E0208804280AD12389A28861882846D5
:101A3000FFF753FFE1882846FFF742FF17E02088B1
:101A400008280AD12389A28861882846FFF7FBFE6F
:101A5000E1882846FFF7EEFE09E02389A288618825
:101A60002846FFF7A6FEE1882846FFF795FE70BDE1
:101A70002DE9F04105460C4600260127608808B98B
:101A8000022600E00026A088012801D1022700E0FC
:101A900001272088A0B92389A28861882846FFF7FA
:101AA00066FFE1882846FFF759FF23893A46314609
:101AB0002846FFF712FFE1882846FFF701FF13E0F1
:101AC0002389A28861882846FFF707FFE188284616
:101AD000FFF7F6FE23893A4631462846FFF747FFCF
:101AE000E1882846FFF73AFFBDE8F0810A884B8875
:101AF0001A438B881A43CB881A430B891A434B89A4
:101B00001A438B891A43A0F8442070474FF6FF719F
:101B1000818000210180C1804180017270470021D5
:101B2000018041808180C180018141818181C181A9
:101B30007047002101804180012181800021C18006
:101B4000018170470021018041808180C180018135
:101B50004181818170470000002C01400034014028
:101B60000004004000080040000C004021B1028841
:101B700042F00102028004E002884FF6FE731A4030
:101B80000280704731B1B0F8442042F40042A0F81E
:101B9000442005E0B0F84420C2F30E02A0F844202F
:101BA00070471AB183890B43838102E083898B4399
:101BB000838170478182704741EA0203A0F8483070
:101BC00070471AB183890B43838102E083898B4379
:101BD0008381704701894FF6F87211400181704787
:101BE0000A46002101894FF68F7319401143018184
:101BF000704730B504460D4629462046FFF7F0FFF2
:101C0000208940F00700208130BD2DE9F0410446D5
:101C10000D4616461F46602D06D13B460122314631
:101C20002046FFF75AFE05E03B460122314620469A
:101C3000FFF79DFE29462046FFF7D2FF208940F09E
:101C400007002081BDE8F08130B50C4600210189F4
:101C5000C9B24FF6FF7505EA03251543254329430D
:101C6000018130BD2DE9F04105460E4617469846E4
:101C7000002443463A4631462846FFF7E5FF2C89C3
:101C80004FF6F870044044F007044FF68F7004409C
:101C900044F070042C81BDE8F081F0B504460D4697
:101CA00016461F463B46324629462046FFF7CCFFE4
:101CB000208940F480402081F0BD018582827047F8
:101CC0000A46002101884FF68F73194011430180A5
:101CD0007047F0B50C4615461E4600210022002331
:101CE0000189028B038C4FF6F877394021434FF678
:101CF000FC473A4040F201173A434FF6DD773B404C
:101D00004FF6FF7707EA06172F433B430181028313
:101D10000384F0BD0A460021018B4FF68F731940F2
:101D20001143018370470A460021018B48F6FF7377
:101D300019404FF6FF7303EA0223194301837047EA
:101D40000A460021818B4FF68F731940114381831E
:101D500070470A460021818B48F6FF7319404FF601
:101D6000FF7303EA022319438183704721B102887C
:101D700042F08002028004E002884FF67F731A402E
:101D80000280704721B1828842F00402828004E020
:101D900082884FF6FB731A408280704721B1828897
:101DA00042F00802828004E082884FF6F7731A40FE
:101DB0008280704721B1828842F00102828004E073
:101DC00082884FF6FE731A40828070470A460021CF
:101DD000018B4FF6F77319401143018370470A4690
:101DE0000021018B4FF2FF7319404FF6FF7303EA96
:101DF00002231943018370470A460021818B4FF665
:101E0000F77319401143818370470A460021818B83
:101E10004FF2FF7319404FF6FF7303EA0223194391
:101E2000818370470A460021018B4FF6FB731940EE
:101E30001143018370470A460021018B4FF6FF339F
:101E400019404FF6FF7303EA0223194301837047D9
:101E50000A460021818B4FF6FB73194011438183A1
:101E600070470A460021818B4FF6FF3319404FF629
:101E7000FF7303EA02231943818370470A46002156
:101E8000018B4FF67F7319401143018370470A4657
:101E90000021018BC1F30E014FF6FF7303EA022309
:101EA0001943018370470A460021818B4FF67F73E7
:101EB00019401143818370470A460021818BC1F389
:101EC0000E014FF6FF7303EA022319438183704723
:101ED0000A460021018C4FF6FD731940114301841D
:101EE00070470A460021018C4FF6F77319401143E1
:101EF000018470470A460021018C4FF6DF731940B8
:101F00004FF6FF7303EA02131943018470470A4630
:101F10000021018C4FF67F7319404FF6FF7303EADF
:101F200002131943018470470A460021018C4FF6C1
:101F3000FF5319404FF6FF7303EA0223194301844C
:101F400070470A460021018C4FF2FF7319404FF68B
:101F5000FF7303EA02231943018470470A460021F4
:101F6000018C4DF6FF7319404FF6FF7303EA0233FD
:101F700019430184704730B5002301248C40A3B27B
:101F8000048C9C430484048C02FA01F5ADB22C430A
:101F9000048430BD30B5002304248C40A3B2048CEB
:101FA0009C430484048C02FA01F5ADB22C430484F2
:101FB00030BD70B5034600200024184618300125B6
:101FC0008D40ACB21D8CA5431D8409B1082909D1EF
:101FD00000EB6100056825F0700505600568154394
:101FE00005600EE00D1FC5F34E052844056825F475
:101FF000E045056005684FF6FF7606EA02263543A0
:10200000056070BD21B1028842F00202028004E046
:1020100002884FF6FD731A400280704721B1028892
:1020200042F00402028004E002884FF6FB731A407B
:102030000280704721B1828842F08002828004E0F1
:1020400082884FF67F731A408280704702884FF66D
:10205000F7731A40028002880A4302807047828820
:102060004FF68F731A40828082880A4382807047BD
:1020700002894FF6F8731A40028102890A430281ED
:10208000704702894FF67F731A40028102890A4322
:1020900002817047818470478185704781867047CF
:1020A0000187704781877047A0F840107047028809
:1020B0004FF6FF431A40028002880A4302807047AD
:1020C0000146888E70470146088F70470146888F09
:1020D00070470146B1F8400070470146888C704750
:1020E0000146088D704702460020138A0B400BB151
:1020F000012000E000207047CA430282704730B5DB
:102100000246002000230024158A05EA0103958970
:1021100005EA010413B10CB1012000E0002030BD3C
:10212000CA4302827047000010B50446FB4884424F
:1021300009D101218803FEF719FF00214FF48040E7
:10214000FEF714FF32E0F648844209D10121480429
:10215000FEF719FF00214FF40030FEF714FF25E0D1
:10216000F048844209D101218804FEF70CFF0021C8
:102170004FF48020FEF707FF18E0EB48844209D1B6
:102180000121C804FEF7FFFE00214FF40020FEF7F6
:10219000FAFE0BE0E548844208D101210805FEF76C
:1021A000F2FE00214FF48010FEF7EDFE10BD2DE988
:1021B000F04786B005460E460024A24600BFA14661
:1021C0000027B08900B100BF2F462C8A4CF6FF7063
:1021D0000440F08804432C82AC894EF6F31004408E
:1021E000B08831890843718908430443AC81AC8AC3
:1021F0004FF6FF400440B0890443AC8201A8FEF7CB
:102200002EFEC648874202D1DDF810A001E0DDF8BD
:102210000CA0A88900F4004040B10AEBCA0000EB12
:102220000A1031684900B0FBF1F807E00AEBCA0078
:1022300000EB0A1031688900B0FBF1F86420B8FBAC
:10224000F0F004012009642101FB1089A88900F441
:10225000004040B1322000EBC900B0FBF1F000F0CB
:102260000700044308E0322000EB09106421B0FBB2
:10227000F1F000F00F0004432C8106B0BDE8F087B8
:102280004FF41651016000218180C18001810C2131
:10229000418100218181704710B502460020108ADB
:1022A0004FF2FF0318400B884C8823438C8823434C
:1022B000CC8823431843108210BD00210180418047
:1022C0008180C180704721B1828942F400528281AD
:1022D00004E082894DF6FF731A4082817047F0B5A1
:1022E0000346002400260025002040F66A17B94264
:1022F00000D100BF1846C1F3421401F01F060127A8
:1023000007FA06F5012C01D10C3004E0022C01D1B2
:10231000103000E014301AB107682F43076002E064
:102320000768AF430760F0BD1AB1838A0B4383820D
:1023300002E0838A8B4383827047028A4FF6F073F0
:102340001A400282028A0A430282704782894FF24F
:10235000FF731A40828182890A438281704721B1CA
:10236000828942F00202828104E082894FF6FD7385
:102370001A4082817047028A4FF6DF731A40028248
:10238000028A0A430282704721B1028A42F48042E3
:10239000028204E0028A4BF6FF731A400282704701
:1023A000C1F308028280704701468888C0F30800A4
:1023B0007047818941F0010181817047028BD2B25F
:1023C0000283028B42EA012202837047028B02F4ED
:1023D0007F420283028B0A430283704721B1828AC3
:1023E00042F02002828204E0828A4FF6DF731A40B4
:1023F0008282704721B1828A42F01002828204E018
:10240000828A4FF6EF731A408282704721B1828A26
:1024100042F00802828204E0828A4FF6F7731A4083
:102420008282704721B1828942F40042828103E0B6
:102430008289C2F30E028281704721B1828A42F4FE
:102440000062828204E0828A4FF2FF731A40828225
:102450007047828A4FF6FB731A408282828A0A434F
:102460008282704721B1828A42F00202828204E0B5
:10247000828A4FF6FD731A4082827047024600201E
:10248000B1F5007F00D100BF13880B400BB10120D4
:1024900000E00020704701F40072B2F5007F00D127
:1024A00000BFCA430280704770B502460024002373
:1024B0000025002040F66A16B14200D100BFC1F3EA
:1024C000421501F01F03012606FA03F3012D02D184
:1024D0009689334006E0022D02D1168A334001E08E
:1024E000968A33400C12012606FA04F4168834400A
:1024F00013B10CB1012000E0002070BD10B5002226
:10250000002340F66A14A14200D100BF0A12012440
:102510009440A3B2DC43048010BD000000380140A9
:102520000044004000480040004C00400050004083
:1025300086B000F0ABF801F0B7FA00F091F801F0C6
:102540003BFC00F039FB00F00BF900F093F932A2EC
:102550000021084600F09EFA01F0F2F901F03CFA81
:1025600000F0FDFB00F0EAFC00F022FD2B490870B2
:1025700001F0B0F900F02BF94FF4FA6000F0C3F865
:1025800001F006FC002141F61F4001F032FB41E062
:102590002348006804F028FD044622460B4621A18A
:1025A00001A804F0B5FF01AA0221002000F072FA90
:1025B0001E48006804F018FD044622460B4619A187
:1025C00001A804F0A5FF01AA0421002000F062FA8E
:1025D000174818A1026801A804F09AFF01AA062171
:1025E000002000F057FA154812A1026801A804F073
:1025F0008FFF01AA0021084600F04CFA1048B0F9FC
:1026000004200CA101A804F083FF01AA00214020AE
:1026100000F040FABCE700006F6B000028000020CB
:1026200000050020252E3266202000000405002031
:10263000740500202564202000000000780500209B
:10264000F0040020704700BFFEE700BFFEE700BFB8
:10265000FEE700BFFEE77047704770477047000015
:1026600008B501211020FEF767FC4FF40050ADF8CB
:10267000000010208DF8030003208DF80200694649
:102680000148FDF79BFF08BD0010014010B56FF039
:102690000400FDF786FE2E4800682E49B0FBF1F0DD
:1026A0002D4908700846007800EB4001C1EBC010CE
:1026B0004FF6FF7101EAC0002849088010BD0146AD
:1026C000254A12784A434FF0E0235A6100229A616A
:1026D0001A46126942F001021A6100BF4FF0E0226F
:1026E000106900F001021AB100F48032002AF5D01E
:1026F0004FF0E022126922F001024FF0E0231A614C
:1027000000229A6170470146144A12884A434FF0EA
:10271000E0235A6100229A611A46126942F00102CE
:102720001A6100BF4FF0E022106900F001021AB1F7
:1027300000F48032002AF5D04FF0E022126922F036
:1027400001024FF0E0231A6100229A6170470000F5
:102750000000002000127A002A0000202C00002037
:1027600008B501210820FEF7E7FB0320ADF80000C3
:102770008DF8020010208DF803006946F748FDF738
:102780001DFF08BD70B504460D4625B10221F34872
:10279000FDF7C1FF03E00221F048FDF7BEFF102165
:1027A000EF48FDF7BAFF2146EE48FEF725FD00BFD2
:1027B0008021EC48FEF773FD0028F9D10221E7489B
:1027C000FDF7A9FF1021E648FDF7A5FF70BD70B524
:1027D000002419E004F1B001C8B20021FFF7D2FFD4
:1027E00000210846FFF7CEFF00211020FFF7CAFFA7
:1027F000002505E001210020FFF7C4FF681CC5B2D9
:10280000802DF7DB601CC4B2082CE3DB70BD70B513
:1028100004460D4605F1B001C8B20021FFF7B2FF32
:10282000102141EA14100021FFF7ACFF04F00F0162
:1028300041F001000021FFF7A5FF70BD10B5002198
:102840008D20FFF79FFF00211420FFF79BFF002141
:10285000AF20FFF797FF10BD10B500218D20FFF7C7
:1028600091FF00211020FFF78DFF0021AE20FFF720
:1028700089FF10BD10B50121B848FDF74CFF642059
:10288000FFF741FF0121B548FDF747FFC820FFF7DB
:102890003AFF0121B148FDF73EFF0021AE20FFF7CE
:1028A00071FF00210846FFF76DFF00211020FFF7A0
:1028B00069FF00214020FFF765FF00218120FFF71D
:1028C00061FF0021CF20FFF75DFF0021A120FFF76E
:1028D00059FF0021C820FFF755FF0021A620FFF770
:1028E00051FF0021A820FFF74DFF00213F20FFF7F7
:1028F00049FF0021D320FFF745FF00210846FFF7DD
:1029000041FF0021D520FFF73DFF00218020FFF788
:1029100039FF0021D920FFF735FF0021F120FFF713
:1029200031FF0021DA20FFF72DFF00211220FFF7F1
:1029300029FF0021DB20FFF725FF00214020FFF7C2
:1029400021FF00212020FFF71DFF00210220FFF7BB
:1029500019FF00218D20FFF715FF00211420FFF73C
:1029600011FF0021A420FFF70DFF0021A620FFF793
:1029700009FF0021AF20FFF705FF0021AF20FFF77F
:1029800001FFFFF724FF00210846FFF740FF10BDBD
:102990002DE9F04107460E46904600250024A8F197
:1029A0002000C5B27F2F02DD0027B01CC6B2314621
:1029B0003846FFF72CFF002408E004EB05116A4AB3
:1029C000505C0121FFF7DEFE601CC4B2082CF4DB72
:1029D000701CC1B23846FFF71AFF002409E004EB6F
:1029E00005110831604A505C0121FFF7CBFE601CE5
:1029F000C4B2082CF3DBBDE8F08110B5024601201B
:102A000000E050430B1EA1F10104E1B2F9D110BD69
:102A10002DE9FF5F074691461D460E9E4FF0000AC6
:102A2000002433E0281B401EC1B20A20FFF7E5FF57
:102A3000B9FBF0F00A21B0FBF1F201FB1208BAF188
:102A4000000F13D1681EA04210DDB8F1000F0BD1AA
:102A5000B34606EBDB71491001FB0471C8B22022BA
:102A60000199FFF795FF0FE04FF0010AB34606EB1F
:102A7000DB71491001FB0471C8B208F13001CAB220
:102A80000199FFF785FF00BF601CC4B2AC42C9DBEF
:102A9000BDE8FF9F2DE9F04104460F46154600268C
:102AA0000EE0AA5D39462046FFF772FF04F10800E8
:102AB000C4B2782C02DD0024B81CC7B2701CC6B2A8
:102AC000A85D0028EDD1BDE8F0812DE9F0418046F8
:102AD0000E461546002731464046FFF798FE002473
:102AE0000AE0224A02EB8511085D0121FFF74AFE48
:102AF000781CC7B2601CC4B2102CF2DB701CC1B2CF
:102B00004046FFF784FE00240CE06900491C174A88
:102B100002EB4111085D0121FFF734FE781CC7B2BA
:102B2000601CC4B2102CF0DBBDE8F0812DE9F05F31
:102B300006460F4690461C46DDF828A04FF0000BD5
:102B4000E11704EB5171C910A4EBC10181B9204612
:102B5000E11704EB5171C1F3C70510E0000C01400F
:102B600000080140003001409C8700082E00002032
:102B70002046E11704EB5171C910491CCDB23D4606
:102B800015E029463046FFF742FEB1460BE05946B4
:102B90000BF1010B1AF801000121FFF7F3FD09F118
:102BA000010000F0FF09C145F1DB681CC5B2A54278
:102BB000E7DBBDE8F09F000000B587B001210420ED
:102BC000FEF7BAF9A020ADF8180003208DF81A001E
:102BD00018208DF81B0006A91D48FDF7EFFC1020FA
:102BE000ADF8180003208DF81A0010208DF81B0096
:102BF00006A91748FDF7E2FC10211548FDF78DFDE9
:102C000001210803FEF798F94FF44040ADF80400A5
:102C10004FF48270ADF806000020ADF808000220E5
:102C2000ADF80A000120ADF80C004002ADF80E002E
:102C30001820ADF810000020ADF8120001A90548D9
:102C4000FEF704FA01210348FEF7A5FA07B000BD1C
:102C50000008014000300140014691F90020002A9F
:102C600001DD00201EE091F90020002A01DA042095
:102C700018E091F90120002A01DD012012E091F90C
:102C80000120002A01DA05200CE091F90220002A37
:102C900001DD022006E091F90220002A01DA062077
:102CA00000E00720704770B505462846FFF7D4FFBF
:102CB0000446E81CFFF7D0FF44EAC00084B2A81D18
:102CC000FFF7CAFF44EA801084B2204670BD70B599
:102CD00088B002A905A802F0DCFD0446072C3CD10F
:102CE00001A802F04AF8059804F043F90646019954
:102CF00003F0B6FF054604F04AF90590069804F083
:102D000038F90646019903F0ABFF054604F03FF998
:102D10000690079804F02DF90646019903F0A0FFEC
:102D2000054604F034F9079005A803F0C2F8684698
:102D300002F040F8BDF80010029848430290BDF838
:102D40000010039848430390BDF8001004984843CE
:102D5000049002A803F040F900BF08B070BD00B5B0
:102D600085B001210820FEF7E7F801218805FEF76C
:102D7000F0F81C208DF813004FF40060ADF810003F
:102D800003208DF8120004A9FE48FDF717FC1C2053
:102D90008DF813004FF48060ADF8100004A9F948D5
:102DA000FDF70CFCF84800904FF48040ADF80C00A3
:102DB000ADF806000020ADF804004FF48060ADF8D7
:102DC0000A00A020ADF808006946F048FDF75DFD57
:102DD0000121EE48FDF7D7FD05B000BD2DE9F0411A
:102DE0000546884616461F460121E848FDF7EFFDD7
:102DF00000BFE749E548FDF7CBFE0028F9D068069B
:102E0000010E0022E148FDF738FE00BFE149DF482E
:102E1000FDF7BEFE0028F9D04146DC48FDF727FE4D
:102E200000BFDC49891CD948FDF7B2FE0028F8D064
:102E300000240CE0395DD548FDF719FE00BFD549E7
:102E4000891CD248FDF7A4FE0028F8D0641CB442C7
:102E5000F0DB0121CD48FDF7C6FD0020BDE8F08183
:102E60002DE9F04105460F4614461E4600BF4FF4BB
:102E70000031C648FDF7AEFE0028F8D10121C34855
:102E8000FDF7A5FD00BFC249C048FDF781FE00283F
:102E9000F9D06806010E0022BC48FDF7EEFD00BF28
:102EA000BC49BA48FDF774FE0028F9D03946B74846
:102EB000FDF7DDFD00BFB749891CB448FDF768FE8A
:102EC0000028F8D00121B148FDF781FD00BFB049CD
:102ED000AE48FDF75DFE0028F9D06806010E01221C
:102EE000AA48FDF7CAFD00BFA949491CA748FDF73C
:102EF0004FFE0028F8D018E0012C07D10021A3488C
:102F0000FDF77DFD0121A148FDF76DFD00BFA04942
:102F10003F319E48FDF73CFE0028F8D09B48FDF766
:102F2000A8FD3070761C601EC4B2002CE4D10121D3
:102F30009648FDF764FD0020BDE8F08108B500204B
:102F400000906B4601226B216820FFF747FF0420A9
:102F500000906B46012219216820FFF73FFF0620F1
:102F600000906B4601221A216820FFF737FF0120ED
:102F700000906B4601221C216820FFF72FFF1820CC
:102F800000906B4601221B216820FFF727FF1C20C1
:102F900000906B46012237216820FFF71FFF0120B8
:102FA00000906B46012238216820FFF717FF08BD0B
:102FB00038B5002000906B46012275216820FFF78C
:102FC0004FFF9DF8000068280ED000BF72480068CF
:102FD00000F4E06071490843001D6F490860BFF3C9
:102FE0004F8F00BF00BFFEE701F0FFFBC4B2002C13
:102FF00041D172B6782001F060F8C4B20CB1012062
:1030000038BD782001F040FAC4B20CB10220F7E7D5
:10301000C82001F01AFBC4B20CB10320F0E702F0A3
:10302000ADFEC4B20CB10420EAE75D48FFF73BFEF9
:10303000054602F0ADFEC4B20CB10520E0E740F257
:10304000731003F0E6FAC4B20CB10620D8E7C8202A
:1030500003F058F8C4B20CB10720D1E7FFF737FEF0
:103060000CB10820CCE7012002F0CEFBC4B20CB1B9
:103070000920C5E762B60020C2E72DE9F04F8DB008
:103080000AA848490BAB06AACDE9001046494748B3
:1030900003F01EFC4348008800F4807000286FD0C5
:1030A000069803F066FF04464FF09D4103F00AFEC8
:1030B0003F490860079803F05CFF04464FF09D41CC
:1030C00003F000FE3B490860089803F052FF0446F5
:1030D0004FF09D4103F0F6FD37490860099803F071
:1030E00048FF04464FF09D4103F0ECFD3349086072
:1030F0002F4801684FF0804003F0B2FD04902E4845
:103100000168049803F0ACFD82462A4801684FF03C
:10311000404003F0A5FD049028480168049803F09E
:103120009FFD8346514603F043FD059003F05CFF8D
:10313000804604F0F1FE06464FF06632204B03F065
:10314000A6FE044603F063FF1E4908601A480168A2
:103150004FF0804003F084FD01901748016801980A
:1031600003F07EFD8246134801684FF0404003F0B3
:1031700077FD01900F480168019803F071FD23E08D
:1031800061E00000000C0140400D030000580040C9
:1031900001000300820007000CED00E00000FA05CA
:1031A00018050020FC040020F6040020F004002094
:1031B000080500200C050020100500201405002043
:1031C00066A64C40000500208346514603F042FDB0
:1031D00081464FF07E5103F0EBFC044603F004FF00
:1031E000CDE90401194801684FF0804003F038FD33
:1031F000834617480168584603F032FD814615485A
:1032000001684FF0804003F02BFD834612480168AF
:10321000584603F025FD8246494603F0C9FC0446A2
:1032200003F0E2FECDE90201DDE9042305F0BCF87C
:1032300007464FF06632094B03F029FE054603F0BE
:10324000E6FE074908600DB0BDE8F08F08050020D4
:103250000C050020100500201405002066A64C4037
:103260000405002010B5322000F032FC0446012C89
:1032700002D14003F7494861022C02D12003F549ED
:10328000086110BD0146002901DA484200E0084605
:10329000704770B505460C46002C08DA1021EE4840
:1032A000FDF739FA0821EC48FDF737FA07E0082165
:1032B000E948FDF730FA1021E748FDF72EFA2046DD
:1032C000FFF7E0FFE5490880002D09DA8914E4489A
:1032D000FDF721FA4FF40061E148FDF71EFA09E01D
:1032E0004FF40061DE48FDF716FA4FF48051DC48D8
:1032F000FDF713FA2846FFF7C5FFD849091F0880D4
:1033000070BD41F6F420D74909684242914202DA81
:103310004142D44A1160D3490968814201DDD14953
:103320000860D14909684242914202DA4142CE4ADC
:103330001160CD490968814201DDCB4908607047C1
:1033400070B506460C461546C848008878B9C84985
:10335000304603F083FE0AD24FF08241304603F03C
:1033600073FE04D21CB915B90120C0490880BF48BA
:103370000088012819D1BF480088401C80B2BD498F
:103380000880322803DD00200880B8490880032C1B
:103390000BDD032D09DD192C07DA192D05DA0020C4
:1033A000B24908800880012070BD0020FCE72DE9AB
:1033B000F05F83461446B04EB04FB148007828B94C
:1033C000B048007810B90020AF490860AC480078D8
:1033D00030B1AE49AC48006803F0EAFBAA49086086
:1033E000A848007830B1A949A748006803F032FC2A
:1033F000A5490860A649A448006803F02FFE02D83A
:10340000A348A1490860A3499F48006803F01CFE37
:1034100002D8A0489C4908609948007810B999489A
:10342000007808B1002600E0934E9B49204603F047
:1034300011FC804603F0ABFD054693480168384611
:1034400003F00EFC8146284603F093FD8246314688
:1034500003F006FC8046494603F0AAFB8F4908604A
:103460000846006803F093FDBDE8F09F2DE9FF5F7B
:1034700004468946DFF828A28A49504603F022FC18
:1034800083468948007838B14FF07E5187480068FC
:1034900003F08EFB854908608548007838B14FF00D
:1034A0007E518248006803F0D5FB80490860774967
:1034B0007E48006803F0D2FD05D87B48007810B143
:1034C00072487A4908607B497848006803F0BCFD7F
:1034D00005D87748007810B176487449086072487A
:1034E000007828B97248007810B900206F49086048
:1034F00004EB090003F03DFD05466C4801682846D1
:1035000003F0A8FB6C4908606C48006803F06CFD90
:1035100007466B4A6B4B03F0BAFC054603F077FD98
:10352000664908606448006803F05EFD644A664BC3
:10353000CDE9000103F0ABFC05460E465F4800688C
:1035400003F052FD07462A46334603F0F9FBCDE966
:10355000020103F05CFD59490860084601685B48B8
:10356000006803F025FB594908605949574800682D
:1035700003F074FD02D25648544908605549534837
:10358000006803F061FD02D2524850490860594674
:103590004E48006803F064FB054651464748006802
:1035A00003F05EFB0646294603F002FB4A49086029
:1035B0000846006803F0EBFC04B0BDE8F09F2DE97D
:1035C000F84F05460C46454E454F4FF040412846C2
:1035D00003F040FB00903946204603F041FB824651
:1035E0003046009903F03CFB8346514603F0E0FA75
:1035F000814603F0CCFC80464046BDE8F88F01468A
:10360000012906D002290BD0032912D004296DD13B
:1036100016E0344A128810B20022324B1A8067E05A
:103620004FF08042928C10B200224FF080439A8477
:103630005EE02D4A128810B200222B4B1A8057E010
:10364000064A1C3A128810B20022044B1C3B1A8016
:103650004EE04BE000100140000C014040080040EB
:1036600000080140240500202805002070050020E6
:10367000000040C172050020333333BF3333333F82
:1036800086050020870500205405002000004040EA
:103690000000FA440000FAC40000B84158050020B8
:1036A0000000E1430000484384050020500500204D
:1036B00085050020000040C0400500204405002092
:1036C0009A9999999999E93F9999C93F4C05002090
:1036D00000401C4600401CC63C0500200000C8C33A
:1036E000CDCC4CBF242C014024040040002000BF5E
:1036F00000BF704710B52020FCF7D7FE00285FD030
:103700002020FCF7F2FEFFF7B8FC0120FFF777FF5F
:1037100040425F4908600220FFF771FF5D49086081
:103720005D49B1F9020003F024FC044621465B48E0
:103730000068FFF744FF5A4908605648016854483A
:103740000068FFF793FE574908605349B1F9040038
:1037500003F00FFC044622464E4801684C480068BE
:10376000FFF725FE504908604D4800684D4909683B
:10377000401A4D49096808444C49086048480068A7
:1037800048490968401A48490968401A4849086088
:10379000404802683E48016840480068FFF7D0FD95
:1037A00020B14FF400414348FCF7B5FFFFF7A9FDF6
:1037B0003F4801683D480068FFF76BFDFFF752FD89
:1037C000002010BD2DE9F04107460E4614461D4667
:1037D00039480088E0B92046FFF754FD02462846E4
:1037E000FFF750FD10441E2805DA34480088401CBD
:1037F0003249088002E00020304908802F480088C4
:103800000A2805DD01202C49088000202B4908806A
:103810002948008801281DD129480088401C80B211
:1038200027490880C82803DD002008802249088035
:103830002449384603F012FC0CD22349304603F0E9
:103840000DFC07D22149304603F0FEFB02D20220D4
:103850001949088018480088022816D11C48008899
:10386000401C80B21A490880642803DD00200880CB
:10387000114908806019FFF705FD232805DD0020A8
:103880000D4908800120BDE8F0810020FBE7000021
:103890007405002078050020F004002000050020B9
:1038A0002C050020300500203405002024050020D0
:1038B0002805002000080140680500206A05002056
:1038C0006C0500200020CB460000B0C100009041F4
:1038D0006E0500201FB54FF4C060FCF713FD1720E4
:1038E0008DF8000000208DF8010001208DF8020005
:1038F0008DF803006846FCF70AFD01210920FDF759
:103900001BFB2020ADF8040004208DF8070001A95E
:103910000A48FCF753FE05210120FCF765FF202033
:10392000029001208DF80E0000208DF80C00082078
:103930008DF80D0002A8FCF761FD1FBD000C0140D1
:1039400000B587B00121C802FDF7F6FA0121042075
:10395000FDF7F2FA4FF44070ADF8180004208DF82E
:103960001B0006A94E48FCF729FE4FF48070ADF805
:1039700012000020ADF80E004FF6FF70ADF81000F9
:103980000020ADF80C008DF8140003A94548FDF7A0
:1039900091FD6846FEF7CDF80A231A4603214148F7
:1039A000FEF797F90A20ADF8080069463D48FEF792
:1039B00014F801213B48FEF79FFB012211463948CC
:1039C000FEF7EFF800213748FEF764FB0121354888
:1039D000FEF7CCF807B000BD00B587B0012108465E
:1039E000FDF7B7FA01210420FDF7A6FA0320ADF890
:1039F000180004208DF81B0006A92948FCF7DEFDFD
:103A00000020ADF81200ADF80E004FF6FF70ADF8D3
:103A100010000020ADF80C008DF8140003A94FF041
:103A20008040FDF747FD6846FEF783F80A231A46F3
:103A300003215807FEF74DF969464FF08040FDF726
:103A4000CCFF01218807FEF757FB0620ADF80800E0
:103A5000012211469007FEF7A4F800214FF08040A4
:103A6000FEF718FB01218807FEF780F807B000BDBC
:103A70000C48103000880B481030008820F00100FE
:103A800008491031088070474FF08040008A4FF09D
:103A90008040008A20F001004FF08041088270478A
:103AA00000080140002C014008B501210420FDF769
:103AB00043FA4FF48060ADF8000028208DF8030031
:103AC00003208DF8020069463448FCF777FD08BDF5
:103AD00010B504464FF480613048FCF702FE28B967
:103AE0002F480088401C2E49088002E000202C4905
:103AF00008804FF480612948FCF7F3FD28B9294874
:103B0000007810B901202749087027480078B0B91B
:103B100024480078012807D124480078401C234914
:103B2000087001202049087020480078022806D13A
:103B300000201E4908701E490880022010BD4FF465
:103B400080611648FCF7CDFD012804D100201549FD
:103B50000870154908701548007801281CD11448D0
:103B60000088401C1249088008460088A0420ADDEF
:103B70000B480088A04206DA00200C4908700C4966
:103B800008800120DAE706480088A04204DD002012
:103B900006490870064908800020CFE70008014068
:103BA000820500207C0500207D0500207E05002088
:103BB0008005002008B501210C20FDF7BDF9182073
:103BC000ADF8000001213848FCF7C9FD10208DF840
:103BD000030003208DF8020069463448FCF7EEFC30
:103BE0004FF41840ADF8000069463148FCF7E6FC98
:103BF00008BD30B589B005460C4601210420FDF70B
:103C0000A8F901210820FDF797F92A48FDF77EFB66
:103C10004FF44070ADF8200018208DF823000320E9
:103C20008DF8220008A92148FCF7C8FCADF818500F
:103C3000ADF814400020ADF81A00ADF8160005A943
:103C40001C48FDF737FC6020ADF804000120ADF8FA
:103C500006000020ADF80800ADF80A00ADF80A0033
:103C6000ADF80C0001A91348FDF7F0FC082111483C
:103C7000FEF7C2F80020ADF80A00ADF80C0001A96B
:103C80000C48FDF72EFD08210A48FEF7BEF8012179
:103C90000848FEF76BF801210648FDF767FFFFF7BC
:103CA00089FF09B030BD000000023000000C014067
:103CB000000801400008004010B504460BE02178E0
:103CC0008A48FEF76DFB00BF80218848FEF7D6FBCF
:103CD0000028F9D0641C20780028F0D110BD08B568
:103CE00025208DF8000000208DF801008DF80200DD
:103CF00001208DF803006846FCF709FB08BD00B5FC
:103D000085B001218803FDF717F901210820FDF78F
:103D100013F901210846FDF70FF94020ADF8100016
:103D200018208DF8130003208DF8120004A97048A4
:103D3000FCF744FC8020ADF8100004208DF813003F
:103D40000121FCF70CFD04A96948FCF737FCFFF7DB
:103D5000C6FF4FF4E13000900020ADF80400ADF84C
:103D60000600ADF80800ADF80C000C20ADF80A0014
:103D700069465E48FEF71BFA012240F225515B4876
:103D8000FEF7ADFA01215948FEF79DFA05B000BDD6
:103D900010B5FFF7B4FFFFF7A2FF56A0FFF78CFFA7
:103DA0004FF4FA70FEF7AFFC56A0FFF785FF4FF413
:103DB000FA70FEF7A8FC10BD08B501210820FDF738
:103DC000BBF84FF40040ADF8000010208DF8030060
:103DD00003208DF8020069464548FCF7EFFB4FF4DD
:103DE00000414348FCF797FC01210820FDF7A4F8A7
:103DF0004FF48040ADF8000069463D48FCF7DEFB1B
:103E00004FF480413A48FCF786FC08BD10B540F2FB
:103E100025513648FEF748FB002866D03348FEF7A8
:103E2000C3FA3E493E4A127888543D4801780078EA
:103E3000401C3B4A10703948405C0A2850D1002091
:103E40001146087037A1354802F093FE041E47D092
:103E50003648C06880F400503449C8602079312861
:103E600008D1002032490870324908703249087080
:103E7000324908702079322809D101202C49087074
:103E800000202C4908702C4908702C4908702079B2
:103E900033280AD1002026490870012025490870DE
:103EA00000202549087025490870207934280AD156
:103EB00000201F4908701F49087001201E49087022
:103EC00000201E4908702079352809D100201849A2
:103ED00008701849087018490870012017490870BF
:103EE00040F225510148FEF709FB10BD00380140A2
:103EF000000C014041542B4349504D55583D310D64
:103F00000A00000041542B43495053455256455234
:103F10003D312C383839390D0A000000BC0500202D
:103F200088050020434D445F000000000010014060
:103F300084050020850500208605002087050020D7
:103F400038B50446FB4890F82400C0B114B10220F3
:103F5000009001E000200090F64A1268D17BF54AFB
:103F6000526810786B460122FEF738FF10B14FF00F
:103F7000FF3038BD9DF80010EE48417423E0ED4855
:103F8000807A10B94FF0FF30F3E724B1E948407C64
:103F900008B10020EDE714B10120009001E00020FD
:103FA0000090E44A1268D17BE24A526810786B466E
:103FB0000122FEF713FF10B14FF0FF30D9E79DF853
:103FC0000010DC4841740020D3E738B5002419E024
:103FD000D8480068C07AA04204D0D6480068407D26
:103FE000A04200D10CE0D349496808786B46012211
:103FF0002146FEF735FF10B14FF0FF3038BD00BF4E
:10400000601CC4B2CB4840680079A042E0DC0020CC
:10401000F4E770B504460D46C6480068C07AA04271
:1040200004D0C4480068407DA04202D14FF0FF3068
:1040300070BDC04840680079A04202DC4FF0FF30FC
:10404000F6E7BC49496808782B4601222146FEF76D
:1040500007FFEDE738B50446B64890F82300A042C4
:1040600001D1002038BD14B13020009001E00020C3
:104070000090B048807C20B19DF8000040F0020024
:104080000090AC4890F8220020B19DF8000040F06C
:1040900080000090A74A1268117DA64A52681078E5
:1040A0006B460122FEF79AFE10B14FF0FF30D9E7C0
:1040B000A04880F823400020D4E738B5044604F037
:1040C000700010B10120009005E014B100200090B4
:1040D00001E040200090974A1268917C954A52680E
:1040E00010786B460122FEF779FE20B1002191483D
:1040F0008172481E38BD9DF8000020F040018D48B7
:1041000001730020009004F0400020B99DF80000E9
:1041100040F00400009004F0200020B99DF8000059
:1041200040F00200009004F0100020B99DF800005B
:1041300040F00100009004F0080020B99DF8000054
:1041400040F0380000907B4A1268D17C794A52686E
:1041500010786B460122FEF741FE20B10021754820
:104160008172481EC6E724B1082C02D00020FFF758
:1041700071FF70488472002101753220FEF7C3FA86
:104180000020B7E738B504466A48807CA04201D1D8
:10419000002038BD002C46D0664A12681179654A65
:1041A000526810786B460122FEF75AFE10B14FF0AC
:1041B000FF30EEE79DF8000020F0200000905D4AFF
:1041C000126811795B4A526810786B460122FEF73B
:1041D00005FE10B14FF0FF30DBE70320FEF793FA46
:1041E00002200090534890F8220020B19DF8000072
:1041F00040F0800000904F4890F8230020B19DF8D7
:10420000000040F0300000904A4A1268117D494A8F
:10421000526810786B460122FEF7E0FD002851D06D
:104220004FF0FF30B5E7434A12681179414A5268AE
:1042300010786B460122FEF713FE10B14FF0FF30ED
:10424000A7E73C48807A00F0010028B19DF8000003
:1042500040F02000009004E09DF8000020F02000D5
:104260000090344A12681179324A526810786B46CD
:104270000122FEF7B3FD10B14FF0FF3089E70320B4
:10428000FEF741FA2B4890F8220010B180200090F0
:1042900001E000200090274890F8230020B19DF80D
:1042A000000040F030000090224A1268117D214A3F
:1042B000526810786B460122FEF790FD10B14FF066
:1042C000FF3066E71B488474002062E708B5194890
:1042D000807A10B94FF0FF3008BD00200090154AD9
:1042E0001268D17B134A526810786B460122FEF7A0
:1042F00075FD10B14FF0FF30EEE70E4A12685179AC
:104300000C4A526810786B460122FEF767FD10B127
:104310004FF0FF30E0E7074A12681179054A52680A
:1043200010786B460122FEF759FD28B14FF0FF309F
:10433000D2E700008C050020F74890F82400002800
:1043400050D00C200090F44A12681179F24A526859
:1043500010786B460122FEF741FD10B14FF0FF309F
:10436000BAE7C0200090EC48807A00F0010020B14C
:104370009DF8000040F020000090E74A1268117993
:10438000E54A526810786B460122FEF727FD10B10E
:104390004FF0FF30A0E7E048407C10B102200090D1
:1043A00001E000200090DC4A1268D17BDA4A5268B2
:1043B00010786B460122FEF711FD10B14FF0FF306F
:1043C0008AE700200090D44A12685179D24A526894
:1043D00010786B460122FEF701FD002852D04FF005
:1043E000FF3079E704200090CB4A12681179CA4A5D
:1043F000526810786B460122FEF7F0FC10B14FF0C6
:10440000FF3069E7C448807C20B9C348807A00F057
:10441000010010B94020009001E060200090BE4AE9
:1044200012681179BC4A526810786B460122FEF777
:10443000D5FC10B14FF0FF304EE7B748407C10B1CB
:104440000120009001E000200090B34A1268D17B67
:10445000B14A526810786B460122FEF7BFFC10B1DA
:104460004FF0FF3038E7AC4A12685179AA4A5268D7
:104470001078A94B10330122FEF7B0FC10B14FF0B9
:10448000FF3029E7002027E770B50446002624F016
:104490000104A14890F8240008B1002070BD9E4896
:1044A000807A10B94FF0FF30F8E79B48057C807A9E
:1044B0002040994908740846007CA04202D04FF081
:1044C000FF3600E0002614B99348007D18B10120A2
:1044D000FFF736FD02E00020FFF732FD3CB1FFF7A9
:1044E000F5FE20B18C4805744FF0FF30D6E730461A
:1044F000D4E738B504468848807A10B94FF0FF30C9
:1045000038BDBC2C02DB0120009015E0622C02DBE0
:104510000220009010E02A2C02DB032000900BE028
:10452000142C02DB0420009006E00A2C02DB05209C
:10453000009001E0062000907748C07A9DF80010B6
:10454000884201D10020DBE7734A12689178724AF1
:10455000526810786B460122FEF740FC10B14FF014
:10456000FF30CDE79DF800106B48C1720020C7E70F
:1045700038B50446282C02DD4FF0FF3038BDDCB9D9
:104580000020FFF767FD00208DF8000007208DF860
:104590000100614A1268917C5F4A526810786B464C
:1045A0000222FEF71BFC10B14FF0FF30E6E70021BE
:1045B000594801750020E1E70120FFF74BFD20205D
:1045C0008DF80000012C06D100208DF80100052097
:1045D000FFF78FFF17E0052C06DC01208DF80100A6
:1045E0000520FFF786FF0EE0142C06DC02208DF874
:1045F00001000A20FFF77DFF05E003208DF8010090
:104600001420FFF776FF9DF80100072101EB8010D1
:10461000C0B28DF80100404A1268917C3E4A52684F
:1046200010786B460222FEF7D9FB10B14FF0FF3035
:10463000A4E7082138488172002101730121017526
:104640000020FFF721FF002098E738B504463248E4
:10465000807A10B94FF0FF3038BD2F4890F8240011
:1046600010B14FF0FF30F7E72B48007D50B134B167
:10467000282C04DCE0B2FFF77BFF0020ECE70020F1
:10468000FFF776FF042C01DA042404E0B4F57A7F06
:1046900001DD4FF47A744FF47A7090FBF4F0401E11
:1046A000C0B200901C4A126851781B4A52681078B8
:1046B0006B460122FEF792FB10B14FF0FF30CBE7C3
:1046C0009DF80000401C4FF47A7191FBF0F081B22C
:1046D0001148C1810146C9894810FFF70AFF00202F
:1046E000BAE738B504460C48807A10B94FF0FF306D
:1046F00038BD022C06D0042C07D0082C08D0102C72
:104700000FD10BE0002000900EE0082000900BE09D
:104710001020009008E000008C0500201820009078
:1047200002E04FF0FF30E3E700BFF748407A9DF822
:104730000010B0EBE10F01D10020D9E7F24A126876
:10474000D179F14A526810786B460122FEF746FB98
:1047500010B14FF0FF30CBE79DF80000C110EA48E0
:1047600041720020C4E738B50446E748807A10B9A2
:104770004FF0FF3038BDFA2C09D0B4F5FA7F09D0DC
:10478000B4F57A7F09D0B4F5FA6F0CD108E00020B7
:1047900000900BE00820009008E01020009005E059
:1047A0001820009002E04FF0FF30E3E700BFD6484A
:1047B000007A9DF80010B0EBE10F01D10020D9E79D
:1047C000D14A12689179D04A526810786B4601221A
:1047D000FEF704FB10B14FF0FF30CBE79DF800006F
:1047E000C010C94908720020C4E71CB580208DF8AC
:1047F0000000C54A1268917CC34A526810786B4623
:104800000122FEF7EBFA10B14FF0FF301CBD64201F
:10481000FDF779FF00208DF80000BB4A1268917CFB
:10482000B94A526810786B460122FEF7D7FA10B1E8
:104830004FF0FF30EAE7B44A1268917DB24A5268FD
:1048400010786B460622FEF70BFB10B14FF0FF30DD
:10485000DCE79DF80500C007400F9DF8031001F04C
:10486000010140EA41009DF8011001F0010140EA18
:10487000010484B1012C03D10121A348C1742DE0AE
:10488000022C03D10021A048C17427E000BF00BF63
:104890004FF0FF30BAE79C4A1268D1789A4A5268C2
:1048A00010786B460122FEF7DBFA10B14FF0FF30B3
:1048B000ACE79DF8000000F00F0424B900BF00BF72
:1048C0004FF0FF30A2E7042C05D100BF00BF01214B
:1048D0008D48C17402E000218B48C174FF218A48D1
:1048E0008172FF2088490872FF2187484172C17296
:1048F0004FF6FF71C181FF210174817401210173A1
:1049000080F82210002180F82310417501751630BF
:10491000016041608160163880F8241080F825100D
:10492000C1844FF4FA60FFF71EFF10B14FF0FF3063
:104930006CE70220FFF7D5FE10B14FF0FF3065E7BE
:104940002A20FFF7D6FD10B14FF0FF305EE732208E
:10495000FFF77BFE10B14FF0FF3057E70020FFF765
:1049600093FD10B14FF0FF3050E70020FFF70AFC35
:1049700010B14FF0FF3049E70020FFF79EFB002009
:1049800044E770477CB504460D465F48807A00F0E6
:10499000700010B94FF0FF307CBD5B4A1268117B8C
:1049A000594A526810786B460622FEF759FA10B140
:1049B0004FF0FF30F0E79DF801009DF8001040EA4D
:1049C000012000B220809DF803009DF8021040EA0B
:1049D000012000B260809DF805009DF8041040EAB7
:1049E000012000B2A08015B12846FFF7CAFF0020C1
:1049F000D2E77CB504460D464348807A00F00800B3
:104A000010B94FF0FF307CBD3F4A1268517B3E4ADF
:104A1000526810786B460622FEF722FA10B14FF06A
:104A2000FF30F0E79DF801009DF8001040EA0120FA
:104A300000B220809DF803009DF8021040EA01209A
:104A400000B260809DF805009DF8041040EA012046
:104A500000B2A08015B12846FFF793FF0020D2E7EF
:104A60002DE9FE4F05460C462748807A18B94FF0CD
:104A7000FF30BDE8FE8F244A1268917B224A5268BB
:104A8000107802AB0222FEF7EBF910B14FF0FF30C5
:104A9000EFE79DF809009DF8081040EA012006B2F2
:104AA00014B12046FFF76DFF17494968C88802F026
:104AB00069FA154901904968B1F9080002F059FAFC
:104AC0008346304602F055FA5946009002F0C2F88B
:104AD0008246019902F0F6F881460C4902F068F826
:104AE00080464FF08F4102F0BBF8074602F04FFAC4
:104AF00028600020BDE710B588B0044644B94FF0E7
:104B0000FF3008B010BD00008C05002000000C42F2
:104B1000206828B9606818B9A06808B90020F0E7D3
:104B2000FA494968087806AB03221146FEF798F95E
:104B300010B14FF0FF30E4E79DF81800082101EBB9
:104B4000201000F00F00ADF800009DF8190001EBF7
:104B5000201000F00F00ADF802009DF81A0001EBE4
:104B6000201000F00F00ADF8040020684100BDF9EE
:104B70000000403091FBF0F000B2ADF8100060682A
:104B80004100BDF90200403091FBF0F000B2ADF8F9
:104B90001200A0684100BDF90400403091FBF0F024
:104BA00000B2ADF81400D9494968087806AB06226E
:104BB0001146FEF755F910B14FF0FF30A1E79DF80F
:104BC00019009DF8181040EA012000B2ADF8080065
:104BD0009DF81B009DF81A1040EA012000B2ADF8C4
:104BE0000A009DF81D009DF81C1040EA012000B24B
:104BF000ADF80C00BDF81000BDF80810084400B274
:104C0000ADF81000BDF81200BDF80A10084400B25B
:104C1000ADF81200BDF81400BDF80C10084400B245
:104C2000ADF81400BDF81000000A8DF81800BDF8AA
:104C30001000C0B28DF81900BDF81200000A8DF8FE
:104C40001A00BDF81200C0B28DF81B00BDF81400A8
:104C5000000A8DF81C00BDF81400C0B28DF81D00CC
:104C6000AA494968087806AB06221146FEF7B6F84D
:104C700010B14FF0FF3044E7002042E70146A3485F
:104C8000007A30B1012807D0022809D003280FD1BB
:104C90000AE0FA2008800EE04FF4FA7008800AE07B
:104CA0004FF47A70088006E04FF4FA60088002E062
:104CB0000020088000BF00BF0020704701469348D5
:104CC000407A30B1012807D0022808D003280CD13F
:104CD00008E0022008700BE00420087008E00820BB
:104CE000087005E01020087002E04FF0FF307047B8
:104CF00000BF8648C07C18B108784006000E0870D6
:104D00000020F4E701468148C07A082817D2DFE87E
:104D100000F01704070A0D101318BC20088013E0D8
:104D20006220088010E02A2008800DE0142008800E
:104D30000AE00A20088007E00520088004E000BFA0
:104D400000BF0020088000BF00BF00207047014660
:104D50006E4890F8240010B14FF0FF3070476B4858
:104D6000C08908800020F9E7014600200880401E25
:104D7000704701464FF0FF30704701466348007AA4
:104D800030B1012807D0022808D003280CD108E050
:104D90005F4808600BE05F48086008E05E48086014
:104DA00005E05E48086002E04FF0FF30704700BF4A
:104DB0000020FBE701465548407A30B1012808D071
:104DC00002280AD0032810D10BE04FF4804008805D
:104DD0000EE041F69C7008800AE04FF48050088095
:104DE00006E04FF40060088002E04FF0FF307047AB
:104DF00000BF4648C07C10B10888401008800020E1
:104E0000F5E701464148007C0870002070470146E4
:104E10003E48807A10B10120087001E0002008703F
:104E20000020704738B504463848807A10B94FF0F2
:104E3000FF3038BD354A1268117C344A5268107808
:104E40006B460222FEF70CF810B14FF0FF30F0E78E
:104E50009DF801009DF8001040EA012000B220807A
:104E60000020E6E72DE9FE4F0746884692461D469C
:104E7000DDF830B000260024244890F8240010B15A
:104E8000601EBDE8FE8F002028702048807A10B98F
:104E90004FF0FF30F5E71D48007C10B94FF0FF30B0
:104EA000EFE71A48007C00F0400008B1B01CC6B221
:104EB0001648007C00F0200008B1B01CC6B21348B0
:104EC000007C00F0100008B1B01CC6B20F48007C96
:104ED00000F0080008B1B01DC6B20C4A1268917A01
:104EE0000A4A526810786B460222FDF7B9FF10B1EA
:104EF0004FF0FF30C5E79DF801009DF8001040EA33
:104F00000129B1450CDA0020BBE700008C05002028
:104F100000000343000083423333034233338341B1
:104F2000FC4840684088B9EB600F17DDF94A126809
:104F3000517CF84A526810786B460122FDF790FFC9
:104F400010B14FF0FF309CE79DF8000000F010001A
:104F500020B1FFF7BBF96FF0010092E75046FFF771
:104F600010FDEC4A1268D17AEA4A526810786B4612
:104F70003246FDF775FF10B14FF0FF3081E799FB26
:104F8000F6F0401E8BF8000000202870B4422AD0B2
:104F9000E048007C00F0080028B3601C1DF8000009
:104FA0001DF8041040EA012000B2A8F80000E01C3F
:104FB0001DF80010A01C1DF8000041EA002000B2FE
:104FC000A8F80200601D1DF80010201D1DF800004B
:104FD00041EA002000B2A8F80400287840F0080058
:104FE0002870A01D84B2B44213D0CA48007C00F0DF
:104FF000400070B1601C1DF800001DF8041040EA6C
:10500000012000B23880287840F040002870A01CB1
:1050100084B2B44213D0BF48007C00F0200070B1CD
:10502000601C1DF800001DF8041040EA012000B2C9
:105030007880287840F020002870A01C84B2B44208
:1050400013D0B448007C00F0100070B1601C1DF853
:1050500000001DF8041040EA012000B2B880287852
:1050600040F010002870A01C84B2002009E7F8B5B9
:1050700004460F461646A74890F8240010B94FF092
:10508000FF30F8BDA348807A10B94FF0FF30F8E741
:10509000A04A1268917A9F4A526810786B460222A1
:1050A000FDF7DEFE10B14FF0FF30EAE79DF801009A
:1050B0009DF8001040EA0125A54203DA0020307077
:1050C000401EDEE7934840684088B5EB600F17DD6F
:1050D000904A1268517C8F4A526810786B460122C0
:1050E000FDF7BEFE10B14FF0FF30CAE79DF800009B
:1050F00000F0100020B1FFF7E9F86FF00100C0E701
:10510000E2B2844B1B68D97A824B5B6818783B46C5
:10511000FDF7A6FE10B14FF0FF30B2E795FBF4F0BB
:10512000401E30700020ACE701467A4880F822101B
:10513000002070477CB5054676494968087801AB80
:1051400004220D21FDF78CFE08B107207CBD9DF8DF
:105150000700C0F301109DF8041001F0E00140EADF
:10516000E1008DF800009DF80700C0F381009DF874
:10517000051001F0E00140EAE1008DF801009DF822
:10518000070000F003009DF8061001F0E00140EA7E
:10519000E1008DF8020000241CE01DF8040018B99D
:1051A000002045F8240013E05B4845F8240006E0A1
:1051B00055F82400594901F053FD45F824001DF825
:1051C0000400401EC0B20DF804000028F0D100BF5A
:1051D000601CC4B2032CE0DB0020B7E72DE9FE4FD2
:1051E00006460F4600256846FFF7A4FF002442E06C
:1051F00056F8240057F82410A0EB010ABAF1000F6A
:1052000001DB514601E0CAF10001084601F0B1FEA0
:1052100083464FF08F4101F055FD80465DF8240034
:10522000002101F011FF16D05DF82410404601F076
:1052300049FD82464FF07E5101F00CFD814629F078
:10524000004A3748416A504601F008FF12D2012057
:10525000A04005430EE03248C169404601F0F4FE2B
:1052600005D32F48016A404601F0F8FE02D2012022
:10527000A0400543641C032CBADB2846BDE8FE8F22
:105280002DE9FC5F06460F4600252249496808784B
:1052900001AB03220D21FDF7E3FD10B10720BDE8AE
:1052A000FC9F9DF8040000F01F008DF804009DF89D
:1052B000050000F01F008DF805009DF8060000F0C5
:1052C0001F008DF80600002462E056F8240057F80D
:1052D0002410A0EB010BBBF1000F01DB594601E0EC
:1052E000CBF10001084601F044FE4FF08F410090E1
:1052F00001F0E8FC814601A8005DC0B308490868D8
:1053000001F040FE83465946064801F0DBFC80462A
:105310000FE000008C0500207B14AE3E1D5A843F38
:10532000B48D000800B04C45FE49404601F098FCA1
:10533000804601A8005D401EC0B201A908550028A2
:10534000F2D14146484601F0BDFC83464FF07E5104
:1053500001F080FC82462AF0004BF34881695846F0
:1053600001F07CFE13D20120A04005430FE0FFE7CF
:10537000ED480169484601F067FE05D3EA484169F6
:10538000484601F06BFE02D20120A0400543641C98
:10539000032C9ADB284682E72DE9F04F87B00546BB
:1053A0000C46914601208DF8100000208DF8110068
:1053B000DE4A1268917CDD4A5268107804AB022202
:1053C000FDF70CFD20B14FF0FF3007B0BDE8F08FC6
:1053D000C820FDF798F900208DF81000D34A126814
:1053E000D17BD24A5268107804AB0122FDF7F6FC5B
:1053F00010B14FF0FF30E8E7CC4A12685179CB4A40
:105400005268107804AB0122FDF7E8FC10B14FF0B0
:10541000FF30DAE7C54A1268917CC44A52681078B6
:1054200004AB0122FDF7DAFC10B14FF0FF30CCE7FE
:10543000BE4A1268D17DBD4A5268107804AB012281
:10544000FDF7CCFC10B14FF0FF30BEE7B74A126851
:105450001179B64A5268107804AB0122FDF7BEFC00
:1054600010B14FF0FF30B0E70C208DF81000AF4ABC
:1054700012681179AD4A5268107804AB0122FDF729
:10548000ADFC10B14FF0FF309FE70F20FDF73BF967
:10549000A648806A407A8DF81000A44A1268917874
:1054A000A24A5268107804AB0122FDF797FC10B1B4
:1054B0004FF0FF3089E79D48806A007A8DF8100030
:1054C0009A4A12685178994A5268107804AB0122BE
:1054D000FDF784FC10B14FF0FF3076E7B9F1000F13
:1054E00007D09248806A807A40F0E0008DF8100082
:1054F00004E08E48806A807A8DF810008B4A12682A
:1055000091798A4A5268107804AB0122FDF766FC53
:1055100010B14FF0FF3058E7B9F1000F07D08348C2
:10552000806AC07A40F0E0008DF8100003E07E4809
:10553000C07A8DF810007D4A1268D1797B4A526892
:10554000107804AB0122FDF749FC10B14FF0FF3099
:105550003BE7B9F1000F02D0C820FDF7D4F8402096
:105560008DF81000714A12681179704A52681078EB
:1055700004AB0122FDF732FC10B14FF0FF3024E7FD
:1055800078208DF81000694A12685179674A52688C
:10559000107804AB0122FDF721FC10B14FF0FF3071
:1055A00013E761498889FDF7AEF800208DF81000F7
:1055B0005E4A126851795D4A5268107804AB012244
:1055C000FDF70CFC10B14FF0FF30FEE6574A1268B1
:1055D000917A564A5268107804AB0222FDF740FCDB
:1055E00010B14FF0FF30F0E69DF811009DF810105B
:1055F00040EA012B0C209BFBF0F0C6B20020A86013
:1056000068602860A06060602060824665E0474A6C
:105610001268D17A454A5268107804AB0C22FDF723
:105620001FFC10B14FF0FF30CFE69DF811009DF840
:10563000101040EA012000B2ADF808009DF81300F8
:105640009DF8121040EA012000B2ADF80A009DF862
:1056500015009DF8141040EA012000B2ADF80C00CE
:10566000BDF90810206808442060BDF90A10606880
:1056700008446060BDF90C10A0680844A0609DF863
:1056800017009DF8161040EA012000B2ADF80000A6
:105690009DF819009DF8181040EA012000B2ADF8FD
:1056A00002009DF81B009DF81A1040EA012000B28C
:1056B000ADF80400BDF90010286808442860BDF961
:1056C0000210686808446860BDF90410A8680844BE
:1056D000A8600AF1010000F0FF0AB24597DB12480A
:1056E000D0F800C02868C117090441EA1041070436
:1056F00062460023384601F0F9F932460023CDE92D
:10570000020101F0F3F928600748D0F800C068688A
:10571000C117090441EA10410704624600233846D4
:1057200006E0000054E3853FB48D00088C0500209E
:1057300001F0DCF932460023CDE9020101F0D6F98F
:105740006860FE48D0F800C0A868C117090441EAA3
:105750001041070462460023384601F0C7F932467B
:105760000023CDE9020101F0C1F9A860F348D0F8A7
:1057700004C02168C817000440EA11480F046246BB
:1057800000233846414601F0B1F932460023CDE905
:10579000020101F0ABF92060E848D0F804C060686D
:1057A000C117090441EA1041070462460023384644
:1057B00001F09CF932460023CDE9020101F096F98F
:1057C0006060DE48D0F804C0A068C117090441EA4F
:1057D0001041070462460023384601F087F932463B
:1057E0000023CDE9020101F081F9A060A068002842
:1057F00004DDA068A0F58030A06003E0A06800F59B
:105800008030A0600020E0E538B50446CC4890F830
:105810002400A04201D1002038BD24B3C84890F82C
:10582000250010B94FF0FF30F6E70020FEF788FBA7
:105830000020FEF7A7FCC249C88CFEF706FF002037
:105840000090BF49496808786B4601222321FDF783
:10585000C5FA0121BA4880F824100120FEF770FB38
:10586000FEF734FD13E00020FEF76AFBB448007C2D
:105870000090B349496808786B4601222321FDF75F
:10588000ADFA0021AE4880F82410FEF71FFD00207D
:10589000C2E72DE9F04F8DB083460F4602200C90F1
:1058A000A74890F8240020B10020FFF7ADFF0126A3
:1058B00000E0002603A8FFF7E1F905A8FFF7FEF9CD
:1058C00001A8FFF71FFA02A8FFF741FA9C4890F8D9
:1058D0000AA004A8FFF795FA002407E00022394641
:1058E0005846FFF759FD00B902E0641C022CF5DBB5
:1058F00000BF022C01D1002528E0002407E001228E
:1059000006A909A8FFF748FD00B902E0641C022CB3
:10591000F5DB00BF022C01D1002517E006A93846AF
:10592000FFF75CFC00F0FF0809A95846FFF7A8FC48
:1059300000F0FF090025B9F1000F01D145F0010584
:10594000B8F1000F01D145F0020500BFFF207C49EE
:105950000872FF217A484172C1724FF6FF71C1810E
:10596000FF218172017401210173BDF80C00FEF763
:10597000FAFE9DF81400FEF7B4FEBDF80400FEF731
:10598000B8FDBDF80800FEF760FE5046FEF795FB37
:105990009DF81000FEF778FD16B10120FFF734FFE7
:1059A00028460DB0BDE8F08FF8B504460D46164602
:1059B00016B94FF0FF30F8BD6148807A10B94FF04A
:1059C000FF30F8E720128DF80000E0B28DF80100FA
:1059D0009DF8010028445A4949684989884202DDF6
:1059E0004FF0FF30E7E7564A1268117E544A52687A
:1059F00010786B460222FDF7F1F910B14FF0FF303D
:105A0000D9E7EAB24E4B1B68597D4D4B5B6818785D
:105A10003346FDF7E3F910B14FF0FF30CBE700203C
:105A2000C9E7F8B504460D46164616B94FF0FF30E3
:105A3000F8BD4348807A10B94FF0FF30F8E72012E4
:105A40008DF80000E0B28DF801009DF801002844B7
:105A50003B4949684989884202DD4FF0FF30E7E75A
:105A6000374A1268117E364A526810786B46022215
:105A7000FDF7B4F910B14FF0FF30D9E7EAB2304B7F
:105A80001B68597D2E4B5B6818783346FDF7E8F9A3
:105A900010B14FF0FF30CBE70020C9E72DE9F0430C
:105AA00085B005460E4690469946254890F8250053
:105AB00020B14FF0FF3005B0BDE8F08316B94FF0CC
:105AC000FF30F8E7002423E0281B102801DD102018
:105AD00000E0281B87B2321939462046FFF764FFE1
